:100000000C28FFFFFFFFFFFFFE00030EFA000408AD
:10001000FB000A08FC00352B0D287E308316B30048
:100020003030B4006D30B5007930B6003330B700F1
:100030005B30B8005F30B9007030BA007F30BB0071
:100040007B30BC004730BD000130BE01BF01C000A5
:100050000330C1000D30C2000F30C30002308312E4
:10006000EE000430EF00FD00A03083138400B330B5
:10007000D927EC01ED018301CD2F8316C500862120
:10008000CF01D001161951288312621D5128620830
:100090008316960084308312E300E30B4D2850282A
:1000A000552883126208831696008316451E5B2826
:1000B00016170F30C505C60145088312E30001304D
:1000C0000310E30DFF3E0310031D6128630D41384B
:1000D00083169500000000000000000083169514B0
:1000E000C401951C7B2874287528762877288316E8
:1000F000C40B712800341908CF00D001CF0ED00EE8
:10010000F030D0054F080F39D004F030CF05180E6D
:100110000F39CF070318D00A49084A04031D922853
:100120009621A42850084A02031D98284F08490226
:1001300003189C289621A82848085002031DA228CD
:1001400047084F020318A8285008C8004F08C700E6
:100150004F088312E300831650088312E400E50180
:10016000E60163088316CB078312640803110318A2
:10017000013E8316031DCC07831265080311031883
:10018000013E8316031DCD07831266080311031871
:10019000013E8316031DCE070A3083128316C60A5A
:1001A0004602031C5C2849088312E30083164A08B0
:1001B0008312E40040217E21E501E60166088316F2
:1001C0004E02031DF3288312650883164D02031D9A
:1001D000F3288312640883164C02031DF32883124C
:1001E000630883164B02031CF8287E214021FC285B
:1001F000CB01CC01CD01CE012408250403193729F8
:1002000060218316B1007624B1278F219A30AB008C
:100210009930AC003E30AD00AC232B08BD002C085B
:10022000BE002D08BF00831625088312A90083167F
:1002300024088312A800B1278F213330AB00AC0013
:100240003F30AD00AC232B08BA002C08BB002D08B2
:10025000BC0077223A08D5003B08D6003C08D700FE
:10026000EB2456088316B200831255083829602102
:100270008316B1003208A5003108A4008621A534F8
:10028000E501E60163088316CB0283126408031CB0
:10029000640F4B294D298316CC0283126508031C79
:1002A000650F532955298316CD0283126608031C56
:1002B000660F5B295D298316CE0283128316080020
:1002C0004B088312E30083164C088312E400831664
:1002D0004D088312E50083164E088312E6000330B2
:1002E0000310E60CE50CE40CE30CFF3E031D702943
:1002F00064088316B200831263080800470883125B
:10030000E300831648088312E4000800CB01CC0107
:10031000CD01CE01C701C801C901CA0108002808E2
:10032000AE002908AF002A08B00008005008CA0033
:100330004F08C900080083162D080319452A2830E4
:10034000850084308312B100B10BA429A72983163C
:10035000AD01242A6C08013E8400C127AE000030A4
:10036000452606308400C1278312AE0001304526A1
:1003700006308400C1278312AE0002304526722267
:10038000C127AE0004304526302A6C08013E8400A7
:10039000C127AE00003045267222C127AE000130D1
:1003A000452606308400C1278312AE000230452660
:1003B0007222C127AE0004304526302A6C08013E67
:1003C0008400C127AE000030452606308400C127D6
:1003D0008312AE00013045267222C127AE000230E2
:1003E00045267222C127AE0004304526302A063049
:1003F0008400C127AE00003045267222C127AE001E
:10040000013045267222C127AE00023045267222F5
:10041000C127AE0004304526302A6C08013E840016
:10042000C127AE00003045267222C127AE00013040
:1004300045267222C127AE00023045267222C1270E
:10044000AE0004304526302A83126C088400053043
:1004500004020318302A07308A00F03004078200B3
:10046000C4308316A0000930A100E9276C08A2005F
:10047000A301A20A0319A30A0530A000A101CF25F8
:100480002008EC0001308316AB002C08031908008B
:10049000AC0106308400C1278312AE00003045262F
:1004A00006308400C1278312AE0001304526063095
:1004B0008400C1278312AE00023045260630840036
:1004C000C1278312AE00043045268312EC013F3071
:1004D00083168500831285008316AB01640000003B
:1004E0000000080083126C08013E840008003A08EE
:1004F000C0003B08C1003C08C2000310410D420D82
:10050000C5003D08C0003E08C1003F08C2000310FE
:10051000410D420DC400450803199A2A44084502BA
:1005200044080318A22AC0004508C002193040023E
:10053000031CA12A3D08BA003E08BB003F08BC00CE
:100540000800440803190800450844020318B02AAB
:100550004508C0004408C0021930400203180800D2
:100560000630C300BC1BC317BF1B4317BB17BC011E
:10057000BE17BF01440845020318D72A0310BD0D5A
:10058000BE0DBF0DC403440845060319D22AC30398
:10059000430807390319D22ABE2A0310BC0CBB0C2E
:1005A000BA0CC50A450844060319F32ACD2A4508A2
:1005B00044020318F32A0310BA0DBB0DBC0DC5038A
:1005C000440845060319EF2AC303430807390319F2
:1005D000EF2ADB2A0310BF0CBE0CBD0CC40A450871
:1005E0004406031DEA2AC31FFE2AFF30BA06BB06D3
:1005F000BC06BA0A0319BB0A0319BC0A431F052B20
:100600002F230319BE0A0319BF0AC3013A08BD0705
:100610003B08031103183B0A031DBE073C080311E6
:1006200003183C0A031DBF07BF1F1D2B2F230319EF
:10063000BE0A0319BF0AC301C30A3D08A0003E0851
:10064000A1003F08A2004508A3004308A4008E258E
:100650002008BA002108BB002208BC000800FF30B7
:10066000BD06BE06BF06BD0A080083128D1D412BC4
:1006700001308316AB00861A3F2B7526402B8E2740
:100680008D110B1C632B861E622B033083162302F5
:10069000E83003192202031C502B0130AC00602B00
:1006A00003302302E930031922020318602B0030C3
:1006B0002302323003192202031C602B0130AD00EB
:1006C000A201A3010B100B1D7E2B83162B0803190F
:1006D0006A2B9726063081070B1126082704031979
:1006E000782B0130A6020030031CA703A7027E2B43
:1006F000E830A6000330A7000130AF0083128D1C44
:10070000A32B8D10861A912B0F3083162E02031CFB
:10071000AE0A0F302E06031D932BA20A0319A30A5B
:10072000932B8316AE012008210403199E2B013060
:10073000A0020030031CA103A102A32B861AA22B46
:100740007526A32B8E277C088A007B0884007A0EEE
:100750008300FE0E7E0E09002B08B1002C08B200AB
:100760002D08B3000310320D330DB4003408031DFF
:10077000BA2B182C2E08B1002F08B2003008B30095
:100780000310320D330DB9003908031DC82B182C86
:1007900039087B3EB4072D08B9003008B90680300F
:1007A000B9050730AC17AF17B001B501B601B701F5
:1007B000B8002B1CE02B07240318300A031DB707D1
:1007C0001224AE0DAF0DB00DB80BD92B0930B80007
:1007D0002B1CEF2B07240318300A031DB707122424
:1007E000B70CB60CB50CB80BE82B3508A0003608D2
:1007F000A1003708A2003408A3003908A4008E2500
:100800002008AB002108AC002208AD0008002E082B
:10081000B5072F08031103182F0A031DB607300868
:10082000031108000310AD0CAC0CAB0C0310080056
:10083000AB01AC01AD0108001F308312E2013D2085
:10084000B000A5303006031D6B2C96308312C90111
:10085000CA004A30CB0083167624B1272808C60088
:100860002908C7002A08C80085247E24EB245808DC
:10087000EB005708EA005608E9005508E800690847
:100880008316A900831268088316A800290883121A
:10089000A900831628088312A800B1272808BD00E4
:1008A0002908BE002A08BF002F30BA01BB00C5309E
:1008B000BC0077223A08C9003B08CA003C08CB00BC
:1008C0006030C601C7004130C80085247E24EB2477
:1008D0005508ED00732C9501960184308312E700D2
:1008E000E70B702C732C8316AF01080032088312BB
:1008F000A900831631088312A80008004608D50015
:100900004708D6004808D70008004908CC004A0824
:10091000CD004B08CE0003104D0D4E0DD3005308F3
:10092000031D932CE72C4608CC004708CD0048084F
:10093000CE0003104D0D4E0DD4005408031DA12C04
:10094000E72C8930D001D101D2015407CC00D30269
:100950004B08D4004808D4068030D4051830CA1794
:10096000CB01C717C801CF000310D00DD10DD20D98
:1009700048084B02031DC22C47084A02031DC22C23
:1009800046084902031CD02C4608C9024708031C2C
:10099000470FCA024808031C480ACB025014031030
:1009A000C90DCA0DCB0DCF0BB42C5008A0005108B7
:1009B000A1005208A2005308A3005408A4008E25E9
:1009C0002008C6002108C7002208C8000800C60188
:1009D000C701C8010800422503105A0D5B0DE10054
:1009E0006108031DF82CD501D601D701D8010800F4
:1009F000422517300310DB0CDA0CD90CFF3E031D27
:100A0000FA2C5908DC00D617D7015508DD00560826
:100A1000DE005708DF008E30E001E102E11F1D2DEE
:100A20006108803A8F3E031CF32C0310E00CDF0CAE
:100A3000DE0CDD0CE10F152D2B2D18306102031893
:100A4000F32C610803192B2D0310DD0DDE0DDF0DD6
:100A5000E00DE103212D5C080319392DDD09DE09C4
:100A6000DF09E009DD0A0319DE0A0319DF0A0319A9
:100A7000E00A6008D8005F08D7005E08D6005D086D
:100A8000D50008005508D9005608DA005708DB00E1
:100A90000800AB01A71F532DA609A709A60A031931
:100AA000A70AAB01AB0AA91F5C2DA809A909A80ACE
:100AB0000319A90A0130AB06AC01AD0126082704D1
:100AC0000319812DAA01AA0AA71B6A2D0310A60DDE
:100AD000A70D632D0310AC0DAD0D27082902031DD2
:100AE000732D26082802031C7D2D2608A80227083E
:100AF000031CA903A9022C140310A70CA60CAA0B13
:100B00006A2D2B080319892DAC09AD09AC0A03190C
:100B1000AD0A2D08A7002C08A60008002308031919
:100B2000962D220821042004031D9C2DA001A10163
:100B3000A2010800A30ACA25FE3022050319A82D28
:100B40009A2DA30AA00A0319A10A0319A20ACA2509
:100B5000FF3022050319B62DA12D02302302031CFC
:100B6000B82DA3030310A00DA10DA20DA11FAD2D43
:100B7000231CA1130310A30C2308A700A601A501A1
:100B80002508A0042608A1042708A2042408031DA0
:100B9000A21708000310A20CA10CA00C0800A501CC
:100BA000A31FD92DA209A309A20A0319A30AA5010B
:100BB000A50AA11FE02DA009A109A00A0319A10AF5
:100BC000200821040319FF2DA401A40AA11BEC2D68
:100BD0000310A00DA10DE52D21082302031DF22D08
:100BE00020082202031CFB2D2008A2022108031C5E
:100BF000A303A3020310A10CA00CA40BEC2D250849
:100C00000319072EA209A309A20A0319A30A23089C
:100C1000A1002208A0000800000064008B017230CF
:100C200083129400043081006400831688018312CB
:100C30008801831687018312870183168501831239
:100C40008501831686018312860106308316810092
:100C50000B118B168B17F930831291008D108E14A7
:100C60000730930020308800850089008B15060826
:100C70002030831688008500890083128E158D111F
:100C800083160608E8308B000800AF006430A60029
:100C9000A7012E08A000FF30A101A200A3015F2739
:100CA0002108A9002008A80049252608B000692EBF
:100CB00030089900080030089A00080030088316B0
:100CC0009B000800300883169C00080030089B0039
:100CD00008002F08840005300402031808000730BC
:100CE0008A00F53004078200080092264427F900A4
:100CF0008726282744278D262827EE007908031900
:100D0000842E0430EF0008000230EF0008000A30A3
:100D1000F5006430F0006D080800FD000A30F000B6
:100D20006D0808006430F50083126D080800E127A3
:100D3000A72E0B278316AA0A0800EE269A2ED12684
:100D40009A2EB4269A2EA0278316AA01080083168D
:100D50002A088400053004020318A42E07308A00F4
:100D6000FA300407820008008312851186116E088C
:100D7000B33E840083130019051006146F08BF3EAC
:100D800084000019851086146F08BF3E8400801906
:100D9000051106157D08B33E8400001805120616DD
:100DA00008008312051106116E08B33E84008313F8
:100DB000001A051006147D08B33E8400001B851040
:100DC00086147D08B33E8400001A851186157D08BF
:100DD000B33E8400801805120616080083128510A1
:100DE00086106E08B33E84008313001B05100614A2
:100DF0007D08B33E8400801A051106157D08B33EB8
:100E000084008019851186157D08B33E8400001981
:100E10000512061608008312051006106E08B33E70
:100E200084008313801A851086146E08B33E8400F4
:100E30008019051106156E08B33E840080188511CF
:100E400086156E08B33E84000018051206160800C9
:100E5000F2000830F300F4017208F10007300310CB
:100E6000F10CFF3E0310031D302F740D7104F400CC
:100E70000310F20D70087402031C402F7008F40276
:100E8000F30B2C2F74080800F600F80175080319FD
:100E90005D2FF701F70AF51B502F0310F50D4A2FB0
:100EA0000310F80D75087602031C5A2F7508F60218
:100EB00078140310F50CF70B502F78080800A401E4
:100EC000A501201C692F2208A4070318A50A2308DE
:100ED000A5070310A20DA30D0310A10CA00C200860
:100EE0002104031D612F2508A1002408A00008008B
:100EF000C03096003F3083168500FF308312970084
:100F00009C00980199019A019E0183169B019E0104
:100F100083129B01173095009D01080092264427FB
:100F2000F9008726282744278D262827EE007908F0
:100F300003199D2F0330EF0008000130EF00080077
:100F40008312051206126F08BF3E840083138018B7
:100F5000051106156F08BF3E840000188510861421
:100F600008002808A0002908A1008E30A201A300D3
:100F7000A4018E252008A8002108A9002208AA00A3
:100F8000080007308A000408840A820700344234CB
:100F9000493455345B345F3400340C26FF277827FE
:100FA00064009B2183162F080319D72F1C2464008B
:100FB000D02F64008001840A04060319003404065B
:100FC000DA2FE22F831205148514051585150516F1
:100FD00008008312EF01FD016C08013EEE000800DD
:100FE000AA29C529DE29F7290D2A582E5B2E5E2E47
:100FF000622E662E992E9D2E9F2EA12EA32EE22FBD
:00000001FF
